{
  "_format": "hh-sol-artifact-1",
  "contractName": "PoetryPublisher",
  "sourceName": "contracts/PoetryPublisher.sol",
  "abi": [
    {
      "inputs": [],
      "stateMutability": "nonpayable",
      "type": "constructor"
    },
    {
      "inputs": [
        {
          "internalType": "address",
          "name": "sender",
          "type": "address"
        },
        {
          "internalType": "uint256",
          "name": "tokenId",
          "type": "uint256"
        },
        {
          "internalType": "address",
          "name": "owner",
          "type": "address"
        }
      ],
      "name": "ERC721IncorrectOwner",
      "type": "error"
    },
    {
      "inputs": [
        {
          "internalType": "address",
          "name": "operator",
          "type": "address"
        },
        {
          "internalType": "uint256",
          "name": "tokenId",
          "type": "uint256"
        }
      ],
      "name": "ERC721InsufficientApproval",
      "type": "error"
    },
    {
      "inputs": [
        {
          "internalType": "address",
          "name": "approver",
          "type": "address"
        }
      ],
      "name": "ERC721InvalidApprover",
      "type": "error"
    },
    {
      "inputs": [
        {
          "internalType": "address",
          "name": "operator",
          "type": "address"
        }
      ],
      "name": "ERC721InvalidOperator",
      "type": "error"
    },
    {
      "inputs": [
        {
          "internalType": "address",
          "name": "owner",
          "type": "address"
        }
      ],
      "name": "ERC721InvalidOwner",
      "type": "error"
    },
    {
      "inputs": [
        {
          "internalType": "address",
          "name": "receiver",
          "type": "address"
        }
      ],
      "name": "ERC721InvalidReceiver",
      "type": "error"
    },
    {
      "inputs": [
        {
          "internalType": "address",
          "name": "sender",
          "type": "address"
        }
      ],
      "name": "ERC721InvalidSender",
      "type": "error"
    },
    {
      "inputs": [
        {
          "internalType": "uint256",
          "name": "tokenId",
          "type": "uint256"
        }
      ],
      "name": "ERC721NonexistentToken",
      "type": "error"
    },
    {
      "anonymous": false,
      "inputs": [
        {
          "indexed": true,
          "internalType": "address",
          "name": "owner",
          "type": "address"
        },
        {
          "indexed": true,
          "internalType": "address",
          "name": "approved",
          "type": "address"
        },
        {
          "indexed": true,
          "internalType": "uint256",
          "name": "tokenId",
          "type": "uint256"
        }
      ],
      "name": "Approval",
      "type": "event"
    },
    {
      "anonymous": false,
      "inputs": [
        {
          "indexed": true,
          "internalType": "address",
          "name": "owner",
          "type": "address"
        },
        {
          "indexed": true,
          "internalType": "address",
          "name": "operator",
          "type": "address"
        },
        {
          "indexed": false,
          "internalType": "bool",
          "name": "approved",
          "type": "bool"
        }
      ],
      "name": "ApprovalForAll",
      "type": "event"
    },
    {
      "anonymous": false,
      "inputs": [
        {
          "indexed": true,
          "internalType": "uint256",
          "name": "poemId",
          "type": "uint256"
        },
        {
          "indexed": true,
          "internalType": "address",
          "name": "author",
          "type": "address"
        },
        {
          "indexed": false,
          "internalType": "string",
          "name": "title",
          "type": "string"
        },
        {
          "indexed": false,
          "internalType": "string",
          "name": "text",
          "type": "string"
        }
      ],
      "name": "PoemPublished",
      "type": "event"
    },
    {
      "anonymous": false,
      "inputs": [
        {
          "indexed": true,
          "internalType": "address",
          "name": "from",
          "type": "address"
        },
        {
          "indexed": true,
          "internalType": "address",
          "name": "to",
          "type": "address"
        },
        {
          "indexed": true,
          "internalType": "uint256",
          "name": "tokenId",
          "type": "uint256"
        }
      ],
      "name": "Transfer",
      "type": "event"
    },
    {
      "inputs": [
        {
          "internalType": "address",
          "name": "to",
          "type": "address"
        },
        {
          "internalType": "uint256",
          "name": "tokenId",
          "type": "uint256"
        }
      ],
      "name": "approve",
      "outputs": [],
      "stateMutability": "nonpayable",
      "type": "function"
    },
    {
      "inputs": [
        {
          "internalType": "address",
          "name": "owner",
          "type": "address"
        }
      ],
      "name": "balanceOf",
      "outputs": [
        {
          "internalType": "uint256",
          "name": "",
          "type": "uint256"
        }
      ],
      "stateMutability": "view",
      "type": "function"
    },
    {
      "inputs": [
        {
          "internalType": "uint256",
          "name": "tokenId",
          "type": "uint256"
        }
      ],
      "name": "getApproved",
      "outputs": [
        {
          "internalType": "address",
          "name": "",
          "type": "address"
        }
      ],
      "stateMutability": "view",
      "type": "function"
    },
    {
      "inputs": [
        {
          "internalType": "uint256",
          "name": "tokenId",
          "type": "uint256"
        }
      ],
      "name": "getPoem",
      "outputs": [
        {
          "internalType": "string",
          "name": "title",
          "type": "string"
        },
        {
          "internalType": "string",
          "name": "text",
          "type": "string"
        }
      ],
      "stateMutability": "view",
      "type": "function"
    },
    {
      "inputs": [
        {
          "internalType": "address",
          "name": "author",
          "type": "address"
        }
      ],
      "name": "getPoems",
      "outputs": [
        {
          "internalType": "uint256[]",
          "name": "",
          "type": "uint256[]"
        }
      ],
      "stateMutability": "view",
      "type": "function"
    },
    {
      "inputs": [
        {
          "internalType": "address",
          "name": "owner",
          "type": "address"
        },
        {
          "internalType": "address",
          "name": "operator",
          "type": "address"
        }
      ],
      "name": "isApprovedForAll",
      "outputs": [
        {
          "internalType": "bool",
          "name": "",
          "type": "bool"
        }
      ],
      "stateMutability": "view",
      "type": "function"
    },
    {
      "inputs": [],
      "name": "name",
      "outputs": [
        {
          "internalType": "string",
          "name": "",
          "type": "string"
        }
      ],
      "stateMutability": "view",
      "type": "function"
    },
    {
      "inputs": [
        {
          "internalType": "uint256",
          "name": "tokenId",
          "type": "uint256"
        }
      ],
      "name": "ownerOf",
      "outputs": [
        {
          "internalType": "address",
          "name": "",
          "type": "address"
        }
      ],
      "stateMutability": "view",
      "type": "function"
    },
    {
      "inputs": [
        {
          "internalType": "uint256",
          "name": "",
          "type": "uint256"
        }
      ],
      "name": "poems",
      "outputs": [
        {
          "internalType": "uint256",
          "name": "tokenId",
          "type": "uint256"
        },
        {
          "internalType": "string",
          "name": "title",
          "type": "string"
        },
        {
          "internalType": "string",
          "name": "text",
          "type": "string"
        }
      ],
      "stateMutability": "view",
      "type": "function"
    },
    {
      "inputs": [
        {
          "internalType": "string",
          "name": "title",
          "type": "string"
        },
        {
          "internalType": "string",
          "name": "text",
          "type": "string"
        }
      ],
      "name": "publishPoem",
      "outputs": [
        {
          "internalType": "uint256",
          "name": "",
          "type": "uint256"
        }
      ],
      "stateMutability": "nonpayable",
      "type": "function"
    },
    {
      "inputs": [
        {
          "internalType": "address",
          "name": "from",
          "type": "address"
        },
        {
          "internalType": "address",
          "name": "to",
          "type": "address"
        },
        {
          "internalType": "uint256",
          "name": "tokenId",
          "type": "uint256"
        }
      ],
      "name": "safeTransferFrom",
      "outputs": [],
      "stateMutability": "nonpayable",
      "type": "function"
    },
    {
      "inputs": [
        {
          "internalType": "address",
          "name": "from",
          "type": "address"
        },
        {
          "internalType": "address",
          "name": "to",
          "type": "address"
        },
        {
          "internalType": "uint256",
          "name": "tokenId",
          "type": "uint256"
        },
        {
          "internalType": "bytes",
          "name": "data",
          "type": "bytes"
        }
      ],
      "name": "safeTransferFrom",
      "outputs": [],
      "stateMutability": "nonpayable",
      "type": "function"
    },
    {
      "inputs": [
        {
          "internalType": "address",
          "name": "operator",
          "type": "address"
        },
        {
          "internalType": "bool",
          "name": "approved",
          "type": "bool"
        }
      ],
      "name": "setApprovalForAll",
      "outputs": [],
      "stateMutability": "nonpayable",
      "type": "function"
    },
    {
      "inputs": [
        {
          "internalType": "bytes4",
          "name": "interfaceId",
          "type": "bytes4"
        }
      ],
      "name": "supportsInterface",
      "outputs": [
        {
          "internalType": "bool",
          "name": "",
          "type": "bool"
        }
      ],
      "stateMutability": "view",
      "type": "function"
    },
    {
      "inputs": [],
      "name": "symbol",
      "outputs": [
        {
          "internalType": "string",
          "name": "",
          "type": "string"
        }
      ],
      "stateMutability": "view",
      "type": "function"
    },
    {
      "inputs": [
        {
          "internalType": "uint256",
          "name": "tokenId",
          "type": "uint256"
        }
      ],
      "name": "tokenURI",
      "outputs": [
        {
          "internalType": "string",
          "name": "",
          "type": "string"
        }
      ],
      "stateMutability": "view",
      "type": "function"
    },
    {
      "inputs": [
        {
          "internalType": "address",
          "name": "from",
          "type": "address"
        },
        {
          "internalType": "address",
          "name": "to",
          "type": "address"
        },
        {
          "internalType": "uint256",
          "name": "tokenId",
          "type": "uint256"
        }
      ],
      "name": "transferFrom",
      "outputs": [],
      "stateMutability": "nonpayable",
      "type": "function"
    }
  ],
  "bytecode": "0x60806040523480156200001157600080fd5b506040518060400160405280601481526020017f506f65747279205075626c6973686572204e46540000000000000000000000008152506040518060400160405280600581526020017f50504e465400000000000000000000000000000000000000000000000000000081525081600090816200008f919062000324565b508060019081620000a1919062000324565b5050506200040b565b600081519050919050565b7f4e487b7100000000000000000000000000000000000000000000000000000000600052604160045260246000fd5b7f4e487b7100000000000000000000000000000000000000000000000000000000600052602260045260246000fd5b600060028204905060018216806200012c57607f821691505b602082108103620001425762000141620000e4565b5b50919050565b60008190508160005260206000209050919050565b60006020601f8301049050919050565b600082821b905092915050565b600060088302620001ac7fffffffffffffffffffffffffffffffffffffffffffffffffffffffffffffffff826200016d565b620001b886836200016d565b95508019841693508086168417925050509392505050565b6000819050919050565b6000819050919050565b600062000205620001ff620001f984620001d0565b620001da565b620001d0565b9050919050565b6000819050919050565b6200022183620001e4565b6200023962000230826200020c565b8484546200017a565b825550505050565b600090565b6200025062000241565b6200025d81848462000216565b505050565b5b8181101562000285576200027960008262000246565b60018101905062000263565b5050565b601f821115620002d4576200029e8162000148565b620002a9846200015d565b81016020851015620002b9578190505b620002d1620002c8856200015d565b83018262000262565b50505b505050565b600082821c905092915050565b6000620002f960001984600802620002d9565b1980831691505092915050565b6000620003148383620002e6565b9150826002028217905092915050565b6200032f82620000aa565b67ffffffffffffffff8111156200034b576200034a620000b5565b5b62000357825462000113565b6200036482828562000289565b600060209050601f8311600181146200039c576000841562000387578287015190505b62000393858262000306565b86555062000403565b601f198416620003ac8662000148565b60005b82811015620003d657848901518255600182019150602085019450602081019050620003af565b86831015620003f65784890151620003f2601f891682620002e6565b8355505b6001600288020188555050505b505050505050565b612bdd806200041b6000396000f3fe608060405234801561001057600080fd5b506004361061010b5760003560e01c806370a08231116100a2578063b88d4fde11610071578063b88d4fde146102de578063c87b56dd146102fa578063d1e80a8d1461032a578063e3f68bda1461035a578063e985e9c51461038b5761010b565b806370a08231146102445780638e0fe3a11461027457806395d89b41146102a4578063a22cb465146102c25761010b565b806323b872dd116100de57806323b872dd146101aa57806342842e0e146101c65780635b93f270146101e25780636352211e146102145761010b565b806301ffc9a71461011057806306fdde0314610140578063081812fc1461015e578063095ea7b31461018e575b600080fd5b61012a60048036038101906101259190611db6565b6103bb565b6040516101379190611dfe565b60405180910390f35b61014861049d565b6040516101559190611ea9565b60405180910390f35b61017860048036038101906101739190611f01565b61052f565b6040516101859190611f6f565b60405180910390f35b6101a860048036038101906101a39190611fb6565b61054b565b005b6101c460048036038101906101bf9190611ff6565b610561565b005b6101e060048036038101906101db9190611ff6565b610663565b005b6101fc60048036038101906101f79190611f01565b610683565b60405161020b93929190612058565b60405180910390f35b61022e60048036038101906102299190611f01565b6107bd565b60405161023b9190611f6f565b60405180910390f35b61025e6004803603810190610259919061209d565b6107cf565b60405161026b91906120ca565b60405180910390f35b61028e6004803603810190610289919061209d565b610889565b60405161029b91906121a3565b60405180910390f35b6102ac6109fc565b6040516102b99190611ea9565b60405180910390f35b6102dc60048036038101906102d791906121f1565b610a8e565b005b6102f860048036038101906102f39190612366565b610aa4565b005b610314600480360381019061030f9190611f01565b610ac1565b6040516103219190611ea9565b60405180910390f35b610344600480360381019061033f919061248a565b610b2a565b60405161035191906120ca565b60405180910390f35b610374600480360381019061036f9190611f01565b610cf6565b604051610382929190612502565b60405180910390f35b6103a560048036038101906103a09190612539565b610e5d565b6040516103b29190611dfe565b60405180910390f35b60007f80ac58cd000000000000000000000000000000000000000000000000000000007bffffffffffffffffffffffffffffffffffffffffffffffffffffffff1916827bffffffffffffffffffffffffffffffffffffffffffffffffffffffff1916148061048657507f5b5e139f000000000000000000000000000000000000000000000000000000007bffffffffffffffffffffffffffffffffffffffffffffffffffffffff1916827bffffffffffffffffffffffffffffffffffffffffffffffffffffffff1916145b80610496575061049582610ef1565b5b9050919050565b6060600080546104ac906125a8565b80601f01602080910402602001604051908101604052809291908181526020018280546104d8906125a8565b80156105255780601f106104fa57610100808354040283529160200191610525565b820191906000526020600020905b81548152906001019060200180831161050857829003601f168201915b5050505050905090565b600061053a82610f5b565b5061054482610fe3565b9050919050565b61055d8282610558611020565b611028565b5050565b600073ffffffffffffffffffffffffffffffffffffffff168273ffffffffffffffffffffffffffffffffffffffff16036105d35760006040517f64a0ae920000000000000000000000000000000000000000000000000000000081526004016105ca9190611f6f565b60405180910390fd5b60006105e783836105e2611020565b61103a565b90508373ffffffffffffffffffffffffffffffffffffffff168173ffffffffffffffffffffffffffffffffffffffff161461065d578382826040517f64283d7b000000000000000000000000000000000000000000000000000000008152600401610654939291906125d9565b60405180910390fd5b50505050565b61067e83838360405180602001604052806000815250610aa4565b505050565b60076020528060005260406000206000915090508060000154908060010180546106ac906125a8565b80601f01602080910402602001604051908101604052809291908181526020018280546106d8906125a8565b80156107255780601f106106fa57610100808354040283529160200191610725565b820191906000526020600020905b81548152906001019060200180831161070857829003601f168201915b50505050509080600201805461073a906125a8565b80601f0160208091040260200160405190810160405280929190818152602001828054610766906125a8565b80156107b35780601f10610788576101008083540402835291602001916107b3565b820191906000526020600020905b81548152906001019060200180831161079657829003601f168201915b5050505050905083565b60006107c882610f5b565b9050919050565b60008073ffffffffffffffffffffffffffffffffffffffff168273ffffffffffffffffffffffffffffffffffffffff16036108425760006040517f89c62b640000000000000000000000000000000000000000000000000000000081526004016108399190611f6f565b60405180910390fd5b600360008373ffffffffffffffffffffffffffffffffffffffff1673ffffffffffffffffffffffffffffffffffffffff168152602001908152602001600020549050919050565b606060006108d4600860008573ffffffffffffffffffffffffffffffffffffffff1673ffffffffffffffffffffffffffffffffffffffff168152602001908152602001600020611254565b67ffffffffffffffff8111156108ed576108ec61223b565b5b60405190808252806020026020018201604052801561091b5781602001602082028036833780820191505090505b50905060005b610968600860008673ffffffffffffffffffffffffffffffffffffffff1673ffffffffffffffffffffffffffffffffffffffff168152602001908152602001600020611254565b8110156109f2576109c081600860008773ffffffffffffffffffffffffffffffffffffffff1673ffffffffffffffffffffffffffffffffffffffff16815260200190815260200160002061126990919063ffffffff16565b8282815181106109d3576109d2612610565b5b60200260200101818152505080806109ea9061266e565b915050610921565b5080915050919050565b606060018054610a0b906125a8565b80601f0160208091040260200160405190810160405280929190818152602001828054610a37906125a8565b8015610a845780601f10610a5957610100808354040283529160200191610a84565b820191906000526020600020905b815481529060010190602001808311610a6757829003601f168201915b5050505050905090565b610aa0610a99611020565b8383611283565b5050565b610aaf848484610561565b610abb848484846113f2565b50505050565b6060610acc82610f5b565b506000610ad76115a9565b90506000815111610af75760405180602001604052806000815250610b22565b80610b01846115c0565b604051602001610b129291906126f2565b6040516020818303038152906040525b915050919050565b600080835111610b6f576040517f08c379a0000000000000000000000000000000000000000000000000000000008152600401610b6690612762565b60405180910390fd5b6000825111610bb3576040517f08c379a0000000000000000000000000000000000000000000000000000000008152600401610baa906127ce565b60405180910390fd5b60066000815480929190610bc69061266e565b919050555060006006549050610bdc338261168e565b600060405180606001604052808381526020018681526020018581525090508060076000848152602001908152602001600020600082015181600001556020820151816001019081610c2e919061299a565b506040820151816002019081610c44919061299a565b50905050610c9982600860003373ffffffffffffffffffffffffffffffffffffffff1673ffffffffffffffffffffffffffffffffffffffff16815260200190815260200160002061178790919063ffffffff16565b503373ffffffffffffffffffffffffffffffffffffffff16827fdab4335cf1cf2941843dcc321e5da1d0f8dab62489d341b689155826511469348787604051610ce3929190612502565b60405180910390a3819250505092915050565b60608060006007600085815260200190815260200160002060405180606001604052908160008201548152602001600182018054610d33906125a8565b80601f0160208091040260200160405190810160405280929190818152602001828054610d5f906125a8565b8015610dac5780601f10610d8157610100808354040283529160200191610dac565b820191906000526020600020905b815481529060010190602001808311610d8f57829003601f168201915b50505050508152602001600282018054610dc5906125a8565b80601f0160208091040260200160405190810160405280929190818152602001828054610df1906125a8565b8015610e3e5780601f10610e1357610100808354040283529160200191610e3e565b820191906000526020600020905b815481529060010190602001808311610e2157829003601f168201915b5050505050815250509050806020015181604001519250925050915091565b6000600560008473ffffffffffffffffffffffffffffffffffffffff1673ffffffffffffffffffffffffffffffffffffffff16815260200190815260200160002060008373ffffffffffffffffffffffffffffffffffffffff1673ffffffffffffffffffffffffffffffffffffffff16815260200190815260200160002060009054906101000a900460ff16905092915050565b60007f01ffc9a7000000000000000000000000000000000000000000000000000000007bffffffffffffffffffffffffffffffffffffffffffffffffffffffff1916827bffffffffffffffffffffffffffffffffffffffffffffffffffffffff1916149050919050565b600080610f67836117a1565b9050600073ffffffffffffffffffffffffffffffffffffffff168173ffffffffffffffffffffffffffffffffffffffff1603610fda57826040517f7e273289000000000000000000000000000000000000000000000000000000008152600401610fd191906120ca565b60405180910390fd5b80915050919050565b60006004600083815260200190815260200160002060009054906101000a900473ffffffffffffffffffffffffffffffffffffffff169050919050565b600033905090565b61103583838360016117de565b505050565b600080611046846117a1565b9050600073ffffffffffffffffffffffffffffffffffffffff168373ffffffffffffffffffffffffffffffffffffffff1614611088576110878184866119a3565b5b600073ffffffffffffffffffffffffffffffffffffffff168173ffffffffffffffffffffffffffffffffffffffff1614611119576110ca6000856000806117de565b6001600360008373ffffffffffffffffffffffffffffffffffffffff1673ffffffffffffffffffffffffffffffffffffffff168152602001908152602001600020600082825403925050819055505b600073ffffffffffffffffffffffffffffffffffffffff168573ffffffffffffffffffffffffffffffffffffffff161461119c576001600360008773ffffffffffffffffffffffffffffffffffffffff1673ffffffffffffffffffffffffffffffffffffffff168152602001908152602001600020600082825401925050819055505b846002600086815260200190815260200160002060006101000a81548173ffffffffffffffffffffffffffffffffffffffff021916908373ffffffffffffffffffffffffffffffffffffffff160217905550838573ffffffffffffffffffffffffffffffffffffffff168273ffffffffffffffffffffffffffffffffffffffff167fddf252ad1be2c89b69c2b068fc378daa952ba7f163c4a11628f55a4df523b3ef60405160405180910390a4809150509392505050565b600061126282600001611a67565b9050919050565b60006112788360000183611a78565b60001c905092915050565b600073ffffffffffffffffffffffffffffffffffffffff168273ffffffffffffffffffffffffffffffffffffffff16036112f457816040517f5b08ba180000000000000000000000000000000000000000000000000000000081526004016112eb9190611f6f565b60405180910390fd5b80600560008573ffffffffffffffffffffffffffffffffffffffff1673ffffffffffffffffffffffffffffffffffffffff16815260200190815260200160002060008473ffffffffffffffffffffffffffffffffffffffff1673ffffffffffffffffffffffffffffffffffffffff16815260200190815260200160002060006101000a81548160ff0219169083151502179055508173ffffffffffffffffffffffffffffffffffffffff168373ffffffffffffffffffffffffffffffffffffffff167f17307eab39ab6107e8899845ad3d59bd9653f200f220920489ca2b5937696c31836040516113e59190611dfe565b60405180910390a3505050565b60008373ffffffffffffffffffffffffffffffffffffffff163b11156115a3578273ffffffffffffffffffffffffffffffffffffffff1663150b7a02611436611020565b8685856040518563ffffffff1660e01b81526004016114589493929190612ac1565b6020604051808303816000875af192505050801561149457506040513d601f19601f820116820180604052508101906114919190612b22565b60015b611518573d80600081146114c4576040519150601f19603f3d011682016040523d82523d6000602084013e6114c9565b606091505b50600081510361151057836040517f64a0ae920000000000000000000000000000000000000000000000000000000081526004016115079190611f6f565b60405180910390fd5b805181602001fd5b63150b7a0260e01b7bffffffffffffffffffffffffffffffffffffffffffffffffffffffff1916817bffffffffffffffffffffffffffffffffffffffffffffffffffffffff1916146115a157836040517f64a0ae920000000000000000000000000000000000000000000000000000000081526004016115989190611f6f565b60405180910390fd5b505b50505050565b606060405180602001604052806000815250905090565b6060600060016115cf84611aa3565b01905060008167ffffffffffffffff8111156115ee576115ed61223b565b5b6040519080825280601f01601f1916602001820160405280156116205781602001600182028036833780820191505090505b509050600082602001820190505b600115611683578080600190039150507f3031323334353637383961626364656600000000000000000000000000000000600a86061a8153600a858161167757611676612b4f565b5b0494506000850361162e575b819350505050919050565b600073ffffffffffffffffffffffffffffffffffffffff168273ffffffffffffffffffffffffffffffffffffffff16036117005760006040517f64a0ae920000000000000000000000000000000000000000000000000000000081526004016116f79190611f6f565b60405180910390fd5b600061170e8383600061103a565b9050600073ffffffffffffffffffffffffffffffffffffffff168173ffffffffffffffffffffffffffffffffffffffff16146117825760006040517f73c6ac6e0000000000000000000000000000000000000000000000000000000081526004016117799190611f6f565b60405180910390fd5b505050565b6000611799836000018360001b611bf6565b905092915050565b60006002600083815260200190815260200160002060009054906101000a900473ffffffffffffffffffffffffffffffffffffffff169050919050565b80806118175750600073ffffffffffffffffffffffffffffffffffffffff168273ffffffffffffffffffffffffffffffffffffffff1614155b1561194b57600061182784610f5b565b9050600073ffffffffffffffffffffffffffffffffffffffff168373ffffffffffffffffffffffffffffffffffffffff161415801561189257508273ffffffffffffffffffffffffffffffffffffffff168173ffffffffffffffffffffffffffffffffffffffff1614155b80156118a557506118a38184610e5d565b155b156118e757826040517fa9fbf51f0000000000000000000000000000000000000000000000000000000081526004016118de9190611f6f565b60405180910390fd5b811561194957838573ffffffffffffffffffffffffffffffffffffffff168273ffffffffffffffffffffffffffffffffffffffff167f8c5be1e5ebec7d5bd14f71427d1e84f3dd0314c0f7b2291e5b200ac8c7c3b92560405160405180910390a45b505b836004600085815260200190815260200160002060006101000a81548173ffffffffffffffffffffffffffffffffffffffff021916908373ffffffffffffffffffffffffffffffffffffffff16021790555050505050565b6119ae838383611c66565b611a6257600073ffffffffffffffffffffffffffffffffffffffff168373ffffffffffffffffffffffffffffffffffffffff1603611a2357806040517f7e273289000000000000000000000000000000000000000000000000000000008152600401611a1a91906120ca565b60405180910390fd5b81816040517f177e802f000000000000000000000000000000000000000000000000000000008152600401611a59929190612b7e565b60405180910390fd5b505050565b600081600001805490509050919050565b6000826000018281548110611a9057611a8f612610565b5b9060005260206000200154905092915050565b600080600090507a184f03e93ff9f4daa797ed6e38ed64bf6a1f0100000000000000008310611b01577a184f03e93ff9f4daa797ed6e38ed64bf6a1f0100000000000000008381611af757611af6612b4f565b5b0492506040810190505b6d04ee2d6d415b85acef81000000008310611b3e576d04ee2d6d415b85acef81000000008381611b3457611b33612b4f565b5b0492506020810190505b662386f26fc100008310611b6d57662386f26fc100008381611b6357611b62612b4f565b5b0492506010810190505b6305f5e1008310611b96576305f5e1008381611b8c57611b8b612b4f565b5b0492506008810190505b6127108310611bbb576127108381611bb157611bb0612b4f565b5b0492506004810190505b60648310611bde5760648381611bd457611bd3612b4f565b5b0492506002810190505b600a8310611bed576001810190505b80915050919050565b6000611c028383611d27565b611c5b578260000182908060018154018082558091505060019003906000526020600020016000909190919091505582600001805490508360010160008481526020019081526020016000208190555060019050611c60565b600090505b92915050565b60008073ffffffffffffffffffffffffffffffffffffffff168373ffffffffffffffffffffffffffffffffffffffff1614158015611d1e57508273ffffffffffffffffffffffffffffffffffffffff168473ffffffffffffffffffffffffffffffffffffffff161480611cdf5750611cde8484610e5d565b5b80611d1d57508273ffffffffffffffffffffffffffffffffffffffff16611d0583610fe3565b73ffffffffffffffffffffffffffffffffffffffff16145b5b90509392505050565b600080836001016000848152602001908152602001600020541415905092915050565b6000604051905090565b600080fd5b600080fd5b60007fffffffff0000000000000000000000000000000000000000000000000000000082169050919050565b611d9381611d5e565b8114611d9e57600080fd5b50565b600081359050611db081611d8a565b92915050565b600060208284031215611dcc57611dcb611d54565b5b6000611dda84828501611da1565b91505092915050565b60008115159050919050565b611df881611de3565b82525050565b6000602082019050611e136000830184611def565b92915050565b600081519050919050565b600082825260208201905092915050565b60005b83811015611e53578082015181840152602081019050611e38565b60008484015250505050565b6000601f19601f8301169050919050565b6000611e7b82611e19565b611e858185611e24565b9350611e95818560208601611e35565b611e9e81611e5f565b840191505092915050565b60006020820190508181036000830152611ec38184611e70565b905092915050565b6000819050919050565b611ede81611ecb565b8114611ee957600080fd5b50565b600081359050611efb81611ed5565b92915050565b600060208284031215611f1757611f16611d54565b5b6000611f2584828501611eec565b91505092915050565b600073ffffffffffffffffffffffffffffffffffffffff82169050919050565b6000611f5982611f2e565b9050919050565b611f6981611f4e565b82525050565b6000602082019050611f846000830184611f60565b92915050565b611f9381611f4e565b8114611f9e57600080fd5b50565b600081359050611fb081611f8a565b92915050565b60008060408385031215611fcd57611fcc611d54565b5b6000611fdb85828601611fa1565b9250506020611fec85828601611eec565b9150509250929050565b60008060006060848603121561200f5761200e611d54565b5b600061201d86828701611fa1565b935050602061202e86828701611fa1565b925050604061203f86828701611eec565b9150509250925092565b61205281611ecb565b82525050565b600060608201905061206d6000830186612049565b818103602083015261207f8185611e70565b905081810360408301526120938184611e70565b9050949350505050565b6000602082840312156120b3576120b2611d54565b5b60006120c184828501611fa1565b91505092915050565b60006020820190506120df6000830184612049565b92915050565b600081519050919050565b600082825260208201905092915050565b6000819050602082019050919050565b61211a81611ecb565b82525050565b600061212c8383612111565b60208301905092915050565b6000602082019050919050565b6000612150826120e5565b61215a81856120f0565b935061216583612101565b8060005b8381101561219657815161217d8882612120565b975061218883612138565b925050600181019050612169565b5085935050505092915050565b600060208201905081810360008301526121bd8184612145565b905092915050565b6121ce81611de3565b81146121d957600080fd5b50565b6000813590506121eb816121c5565b92915050565b6000806040838503121561220857612207611d54565b5b600061221685828601611fa1565b9250506020612227858286016121dc565b9150509250929050565b600080fd5b600080fd5b7f4e487b7100000000000000000000000000000000000000000000000000000000600052604160045260246000fd5b61227382611e5f565b810181811067ffffffffffffffff821117156122925761229161223b565b5b80604052505050565b60006122a5611d4a565b90506122b1828261226a565b919050565b600067ffffffffffffffff8211156122d1576122d061223b565b5b6122da82611e5f565b9050602081019050919050565b82818337600083830152505050565b6000612309612304846122b6565b61229b565b90508281526020810184848401111561232557612324612236565b5b6123308482856122e7565b509392505050565b600082601f83011261234d5761234c612231565b5b813561235d8482602086016122f6565b91505092915050565b600080600080608085870312156123805761237f611d54565b5b600061238e87828801611fa1565b945050602061239f87828801611fa1565b93505060406123b087828801611eec565b925050606085013567ffffffffffffffff8111156123d1576123d0611d59565b5b6123dd87828801612338565b91505092959194509250565b600067ffffffffffffffff8211156124045761240361223b565b5b61240d82611e5f565b9050602081019050919050565b600061242d612428846123e9565b61229b565b90508281526020810184848401111561244957612448612236565b5b6124548482856122e7565b509392505050565b600082601f83011261247157612470612231565b5b813561248184826020860161241a565b91505092915050565b600080604083850312156124a1576124a0611d54565b5b600083013567ffffffffffffffff8111156124bf576124be611d59565b5b6124cb8582860161245c565b925050602083013567ffffffffffffffff8111156124ec576124eb611d59565b5b6124f88582860161245c565b9150509250929050565b6000604082019050818103600083015261251c8185611e70565b905081810360208301526125308184611e70565b90509392505050565b600080604083850312156125505761254f611d54565b5b600061255e85828601611fa1565b925050602061256f85828601611fa1565b9150509250929050565b7f4e487b7100000000000000000000000000000000000000000000000000000000600052602260045260246000fd5b600060028204905060018216806125c057607f821691505b6020821081036125d3576125d2612579565b5b50919050565b60006060820190506125ee6000830186611f60565b6125fb6020830185612049565b6126086040830184611f60565b949350505050565b7f4e487b7100000000000000000000000000000000000000000000000000000000600052603260045260246000fd5b7f4e487b7100000000000000000000000000000000000000000000000000000000600052601160045260246000fd5b600061267982611ecb565b91507fffffffffffffffffffffffffffffffffffffffffffffffffffffffffffffffff82036126ab576126aa61263f565b5b600182019050919050565b600081905092915050565b60006126cc82611e19565b6126d681856126b6565b93506126e6818560208601611e35565b80840191505092915050565b60006126fe82856126c1565b915061270a82846126c1565b91508190509392505050565b7f5469746c652063616e6e6f7420626520656d7074790000000000000000000000600082015250565b600061274c601583611e24565b915061275782612716565b602082019050919050565b6000602082019050818103600083015261277b8161273f565b9050919050565b7f546578742063616e6e6f7420626520656d707479000000000000000000000000600082015250565b60006127b8601483611e24565b91506127c382612782565b602082019050919050565b600060208201905081810360008301526127e7816127ab565b9050919050565b60008190508160005260206000209050919050565b60006020601f8301049050919050565b600082821b905092915050565b6000600883026128507fffffffffffffffffffffffffffffffffffffffffffffffffffffffffffffffff82612813565b61285a8683612813565b95508019841693508086168417925050509392505050565b6000819050919050565b600061289761289261288d84611ecb565b612872565b611ecb565b9050919050565b6000819050919050565b6128b18361287c565b6128c56128bd8261289e565b848454612820565b825550505050565b600090565b6128da6128cd565b6128e58184846128a8565b505050565b5b81811015612909576128fe6000826128d2565b6001810190506128eb565b5050565b601f82111561294e5761291f816127ee565b61292884612803565b81016020851015612937578190505b61294b61294385612803565b8301826128ea565b50505b505050565b600082821c905092915050565b600061297160001984600802612953565b1980831691505092915050565b600061298a8383612960565b9150826002028217905092915050565b6129a382611e19565b67ffffffffffffffff8111156129bc576129bb61223b565b5b6129c682546125a8565b6129d182828561290d565b600060209050601f831160018114612a0457600084156129f2578287015190505b6129fc858261297e565b865550612a64565b601f198416612a12866127ee565b60005b82811015612a3a57848901518255600182019150602085019450602081019050612a15565b86831015612a575784890151612a53601f891682612960565b8355505b6001600288020188555050505b505050505050565b600081519050919050565b600082825260208201905092915050565b6000612a9382612a6c565b612a9d8185612a77565b9350612aad818560208601611e35565b612ab681611e5f565b840191505092915050565b6000608082019050612ad66000830187611f60565b612ae36020830186611f60565b612af06040830185612049565b8181036060830152612b028184612a88565b905095945050505050565b600081519050612b1c81611d8a565b92915050565b600060208284031215612b3857612b37611d54565b5b6000612b4684828501612b0d565b91505092915050565b7f4e487b7100000000000000000000000000000000000000000000000000000000600052601260045260246000fd5b6000604082019050612b936000830185611f60565b612ba06020830184612049565b939250505056fea26469706673582212208057cd996ea66f5faf964c1ceeec75de8a89c76c4059958c2a2685e5f0b8f49964736f6c63430008140033",
  "linkReferences": {},
  "deployedLinkReferences": {}
}