{
  "_format": "hh-sol-artifact-1",
  "contractName": "PoetryPublisher",
  "sourceName": "contracts/PoetryPublisher.sol",
  "abi": [
    {
      "inputs": [],
      "stateMutability": "nonpayable",
      "type": "constructor"
    },
    {
      "inputs": [
        {
          "internalType": "address",
          "name": "sender",
          "type": "address"
        },
        {
          "internalType": "uint256",
          "name": "tokenId",
          "type": "uint256"
        },
        {
          "internalType": "address",
          "name": "owner",
          "type": "address"
        }
      ],
      "name": "ERC721IncorrectOwner",
      "type": "error"
    },
    {
      "inputs": [
        {
          "internalType": "address",
          "name": "operator",
          "type": "address"
        },
        {
          "internalType": "uint256",
          "name": "tokenId",
          "type": "uint256"
        }
      ],
      "name": "ERC721InsufficientApproval",
      "type": "error"
    },
    {
      "inputs": [
        {
          "internalType": "address",
          "name": "approver",
          "type": "address"
        }
      ],
      "name": "ERC721InvalidApprover",
      "type": "error"
    },
    {
      "inputs": [
        {
          "internalType": "address",
          "name": "operator",
          "type": "address"
        }
      ],
      "name": "ERC721InvalidOperator",
      "type": "error"
    },
    {
      "inputs": [
        {
          "internalType": "address",
          "name": "owner",
          "type": "address"
        }
      ],
      "name": "ERC721InvalidOwner",
      "type": "error"
    },
    {
      "inputs": [
        {
          "internalType": "address",
          "name": "receiver",
          "type": "address"
        }
      ],
      "name": "ERC721InvalidReceiver",
      "type": "error"
    },
    {
      "inputs": [
        {
          "internalType": "address",
          "name": "sender",
          "type": "address"
        }
      ],
      "name": "ERC721InvalidSender",
      "type": "error"
    },
    {
      "inputs": [
        {
          "internalType": "uint256",
          "name": "tokenId",
          "type": "uint256"
        }
      ],
      "name": "ERC721NonexistentToken",
      "type": "error"
    },
    {
      "anonymous": false,
      "inputs": [
        {
          "indexed": true,
          "internalType": "address",
          "name": "owner",
          "type": "address"
        },
        {
          "indexed": true,
          "internalType": "address",
          "name": "approved",
          "type": "address"
        },
        {
          "indexed": true,
          "internalType": "uint256",
          "name": "tokenId",
          "type": "uint256"
        }
      ],
      "name": "Approval",
      "type": "event"
    },
    {
      "anonymous": false,
      "inputs": [
        {
          "indexed": true,
          "internalType": "address",
          "name": "owner",
          "type": "address"
        },
        {
          "indexed": true,
          "internalType": "address",
          "name": "operator",
          "type": "address"
        },
        {
          "indexed": false,
          "internalType": "bool",
          "name": "approved",
          "type": "bool"
        }
      ],
      "name": "ApprovalForAll",
      "type": "event"
    },
    {
      "anonymous": false,
      "inputs": [
        {
          "indexed": true,
          "internalType": "uint256",
          "name": "poemId",
          "type": "uint256"
        },
        {
          "indexed": true,
          "internalType": "address",
          "name": "author",
          "type": "address"
        },
        {
          "indexed": false,
          "internalType": "string",
          "name": "title",
          "type": "string"
        },
        {
          "indexed": false,
          "internalType": "string",
          "name": "text",
          "type": "string"
        }
      ],
      "name": "PoemPublished",
      "type": "event"
    },
    {
      "anonymous": false,
      "inputs": [
        {
          "indexed": true,
          "internalType": "address",
          "name": "from",
          "type": "address"
        },
        {
          "indexed": true,
          "internalType": "address",
          "name": "to",
          "type": "address"
        },
        {
          "indexed": true,
          "internalType": "uint256",
          "name": "tokenId",
          "type": "uint256"
        }
      ],
      "name": "Transfer",
      "type": "event"
    },
    {
      "inputs": [
        {
          "internalType": "address",
          "name": "to",
          "type": "address"
        },
        {
          "internalType": "uint256",
          "name": "tokenId",
          "type": "uint256"
        }
      ],
      "name": "approve",
      "outputs": [],
      "stateMutability": "nonpayable",
      "type": "function"
    },
    {
      "inputs": [
        {
          "internalType": "address",
          "name": "owner",
          "type": "address"
        }
      ],
      "name": "balanceOf",
      "outputs": [
        {
          "internalType": "uint256",
          "name": "",
          "type": "uint256"
        }
      ],
      "stateMutability": "view",
      "type": "function"
    },
    {
      "inputs": [
        {
          "internalType": "uint256",
          "name": "tokenId",
          "type": "uint256"
        }
      ],
      "name": "getApproved",
      "outputs": [
        {
          "internalType": "address",
          "name": "",
          "type": "address"
        }
      ],
      "stateMutability": "view",
      "type": "function"
    },
    {
      "inputs": [
        {
          "internalType": "uint256",
          "name": "tokenId",
          "type": "uint256"
        }
      ],
      "name": "getPoem",
      "outputs": [
        {
          "internalType": "string",
          "name": "title",
          "type": "string"
        },
        {
          "internalType": "string",
          "name": "text",
          "type": "string"
        }
      ],
      "stateMutability": "view",
      "type": "function"
    },
    {
      "inputs": [
        {
          "internalType": "address",
          "name": "author",
          "type": "address"
        }
      ],
      "name": "getPoems",
      "outputs": [
        {
          "internalType": "uint256[]",
          "name": "",
          "type": "uint256[]"
        }
      ],
      "stateMutability": "view",
      "type": "function"
    },
    {
      "inputs": [
        {
          "internalType": "address",
          "name": "owner",
          "type": "address"
        },
        {
          "internalType": "address",
          "name": "operator",
          "type": "address"
        }
      ],
      "name": "isApprovedForAll",
      "outputs": [
        {
          "internalType": "bool",
          "name": "",
          "type": "bool"
        }
      ],
      "stateMutability": "view",
      "type": "function"
    },
    {
      "inputs": [],
      "name": "name",
      "outputs": [
        {
          "internalType": "string",
          "name": "",
          "type": "string"
        }
      ],
      "stateMutability": "view",
      "type": "function"
    },
    {
      "inputs": [
        {
          "internalType": "uint256",
          "name": "tokenId",
          "type": "uint256"
        }
      ],
      "name": "ownerOf",
      "outputs": [
        {
          "internalType": "address",
          "name": "",
          "type": "address"
        }
      ],
      "stateMutability": "view",
      "type": "function"
    },
    {
      "inputs": [
        {
          "internalType": "uint256",
          "name": "",
          "type": "uint256"
        }
      ],
      "name": "poemExists",
      "outputs": [
        {
          "internalType": "bool",
          "name": "",
          "type": "bool"
        }
      ],
      "stateMutability": "view",
      "type": "function"
    },
    {
      "inputs": [
        {
          "internalType": "uint256",
          "name": "",
          "type": "uint256"
        }
      ],
      "name": "poems",
      "outputs": [
        {
          "internalType": "uint256",
          "name": "tokenId",
          "type": "uint256"
        },
        {
          "internalType": "string",
          "name": "title",
          "type": "string"
        },
        {
          "internalType": "string",
          "name": "text",
          "type": "string"
        }
      ],
      "stateMutability": "view",
      "type": "function"
    },
    {
      "inputs": [
        {
          "internalType": "uint256",
          "name": "poemId",
          "type": "uint256"
        }
      ],
      "name": "poemsContains",
      "outputs": [
        {
          "internalType": "bool",
          "name": "",
          "type": "bool"
        }
      ],
      "stateMutability": "view",
      "type": "function"
    },
    {
      "inputs": [
        {
          "internalType": "string",
          "name": "title",
          "type": "string"
        },
        {
          "internalType": "string",
          "name": "text",
          "type": "string"
        }
      ],
      "name": "publishPoem",
      "outputs": [
        {
          "internalType": "uint256",
          "name": "",
          "type": "uint256"
        }
      ],
      "stateMutability": "nonpayable",
      "type": "function"
    },
    {
      "inputs": [
        {
          "internalType": "address",
          "name": "from",
          "type": "address"
        },
        {
          "internalType": "address",
          "name": "to",
          "type": "address"
        },
        {
          "internalType": "uint256",
          "name": "tokenId",
          "type": "uint256"
        }
      ],
      "name": "safeTransferFrom",
      "outputs": [],
      "stateMutability": "nonpayable",
      "type": "function"
    },
    {
      "inputs": [
        {
          "internalType": "address",
          "name": "from",
          "type": "address"
        },
        {
          "internalType": "address",
          "name": "to",
          "type": "address"
        },
        {
          "internalType": "uint256",
          "name": "tokenId",
          "type": "uint256"
        },
        {
          "internalType": "bytes",
          "name": "data",
          "type": "bytes"
        }
      ],
      "name": "safeTransferFrom",
      "outputs": [],
      "stateMutability": "nonpayable",
      "type": "function"
    },
    {
      "inputs": [
        {
          "internalType": "address",
          "name": "operator",
          "type": "address"
        },
        {
          "internalType": "bool",
          "name": "approved",
          "type": "bool"
        }
      ],
      "name": "setApprovalForAll",
      "outputs": [],
      "stateMutability": "nonpayable",
      "type": "function"
    },
    {
      "inputs": [
        {
          "internalType": "bytes4",
          "name": "interfaceId",
          "type": "bytes4"
        }
      ],
      "name": "supportsInterface",
      "outputs": [
        {
          "internalType": "bool",
          "name": "",
          "type": "bool"
        }
      ],
      "stateMutability": "view",
      "type": "function"
    },
    {
      "inputs": [],
      "name": "symbol",
      "outputs": [
        {
          "internalType": "string",
          "name": "",
          "type": "string"
        }
      ],
      "stateMutability": "view",
      "type": "function"
    },
    {
      "inputs": [
        {
          "internalType": "uint256",
          "name": "tokenId",
          "type": "uint256"
        }
      ],
      "name": "tokenURI",
      "outputs": [
        {
          "internalType": "string",
          "name": "",
          "type": "string"
        }
      ],
      "stateMutability": "view",
      "type": "function"
    },
    {
      "inputs": [
        {
          "internalType": "address",
          "name": "from",
          "type": "address"
        },
        {
          "internalType": "address",
          "name": "to",
          "type": "address"
        },
        {
          "internalType": "uint256",
          "name": "tokenId",
          "type": "uint256"
        }
      ],
      "name": "transferFrom",
      "outputs": [],
      "stateMutability": "nonpayable",
      "type": "function"
    }
  ],
  "bytecode": "0x60806040523480156200001157600080fd5b506040518060400160405280601481526020017f506f65747279205075626c6973686572204e46540000000000000000000000008152506040518060400160405280600581526020017f50504e465400000000000000000000000000000000000000000000000000000081525081600090816200008f919062000324565b508060019081620000a1919062000324565b5050506200040b565b600081519050919050565b7f4e487b7100000000000000000000000000000000000000000000000000000000600052604160045260246000fd5b7f4e487b7100000000000000000000000000000000000000000000000000000000600052602260045260246000fd5b600060028204905060018216806200012c57607f821691505b602082108103620001425762000141620000e4565b5b50919050565b60008190508160005260206000209050919050565b60006020601f8301049050919050565b600082821b905092915050565b600060088302620001ac7fffffffffffffffffffffffffffffffffffffffffffffffffffffffffffffffff826200016d565b620001b886836200016d565b95508019841693508086168417925050509392505050565b6000819050919050565b6000819050919050565b600062000205620001ff620001f984620001d0565b620001da565b620001d0565b9050919050565b6000819050919050565b6200022183620001e4565b6200023962000230826200020c565b8484546200017a565b825550505050565b600090565b6200025062000241565b6200025d81848462000216565b505050565b5b8181101562000285576200027960008262000246565b60018101905062000263565b5050565b601f821115620002d4576200029e8162000148565b620002a9846200015d565b81016020851015620002b9578190505b620002d1620002c8856200015d565b83018262000262565b50505b505050565b600082821c905092915050565b6000620002f960001984600802620002d9565b1980831691505092915050565b6000620003148383620002e6565b9150826002028217905092915050565b6200032f82620000aa565b67ffffffffffffffff8111156200034b576200034a620000b5565b5b62000357825462000113565b6200036482828562000289565b600060209050601f8311600181146200039c576000841562000387578287015190505b62000393858262000306565b86555062000403565b601f198416620003ac8662000148565b60005b82811015620003d657848901518255600182019150602085019450602081019050620003af565b86831015620003f65784890151620003f2601f891682620002e6565b8355505b6001600288020188555050505b505050505050565b613093806200041b6000396000f3fe608060405234801561001057600080fd5b50600436106101215760003560e01c806370a08231116100ad578063b88d4fde11610071578063b88d4fde14610354578063c87b56dd14610370578063d1e80a8d146103a0578063e3f68bda146103d0578063e985e9c51461040157610121565b806370a082311461028a57806370d3e8e6146102ba5780638e0fe3a1146102ea57806395d89b411461031a578063a22cb4651461033857610121565b806323b872dd116100f457806323b872dd146101c057806342842e0e146101dc57806347570996146101f85780635b93f270146102285780636352211e1461025a57610121565b806301ffc9a71461012657806306fdde0314610156578063081812fc14610174578063095ea7b3146101a4575b600080fd5b610140600480360381019061013b9190611fa6565b610431565b60405161014d9190611fee565b60405180910390f35b61015e610513565b60405161016b9190612099565b60405180910390f35b61018e600480360381019061018991906120f1565b6105a5565b60405161019b919061215f565b60405180910390f35b6101be60048036038101906101b991906121a6565b6105c1565b005b6101da60048036038101906101d591906121e6565b6105d7565b005b6101f660048036038101906101f191906121e6565b6106d9565b005b610212600480360381019061020d91906120f1565b6106f9565b60405161021f9190611fee565b60405180910390f35b610242600480360381019061023d91906120f1565b610723565b60405161025193929190612248565b60405180910390f35b610274600480360381019061026f91906120f1565b61085d565b604051610281919061215f565b60405180910390f35b6102a4600480360381019061029f919061228d565b61086f565b6040516102b191906122ba565b60405180910390f35b6102d460048036038101906102cf91906120f1565b610929565b6040516102e19190611fee565b60405180910390f35b61030460048036038101906102ff919061228d565b610949565b6040516103119190612393565b60405180910390f35b610322610abc565b60405161032f9190612099565b60405180910390f35b610352600480360381019061034d91906123e1565b610b4e565b005b61036e60048036038101906103699190612556565b610b64565b005b61038a600480360381019061038591906120f1565b610b81565b6040516103979190612099565b60405180910390f35b6103ba60048036038101906103b5919061267a565b610d7a565b6040516103c791906122ba565b60405180910390f35b6103ea60048036038101906103e591906120f1565b610f72565b6040516103f89291906126f2565b60405180910390f35b61041b60048036038101906104169190612729565b6110d9565b6040516104289190611fee565b60405180910390f35b60007f80ac58cd000000000000000000000000000000000000000000000000000000007bffffffffffffffffffffffffffffffffffffffffffffffffffffffff1916827bffffffffffffffffffffffffffffffffffffffffffffffffffffffff191614806104fc57507f5b5e139f000000000000000000000000000000000000000000000000000000007bffffffffffffffffffffffffffffffffffffffffffffffffffffffff1916827bffffffffffffffffffffffffffffffffffffffffffffffffffffffff1916145b8061050c575061050b8261116d565b5b9050919050565b60606000805461052290612798565b80601f016020809104026020016040519081016040528092919081815260200182805461054e90612798565b801561059b5780601f106105705761010080835404028352916020019161059b565b820191906000526020600020905b81548152906001019060200180831161057e57829003601f168201915b5050505050905090565b60006105b0826111d7565b506105ba8261125f565b9050919050565b6105d382826105ce61129c565b6112a4565b5050565b600073ffffffffffffffffffffffffffffffffffffffff168273ffffffffffffffffffffffffffffffffffffffff16036106495760006040517f64a0ae92000000000000000000000000000000000000000000000000000000008152600401610640919061215f565b60405180910390fd5b600061065d838361065861129c565b6112b6565b90508373ffffffffffffffffffffffffffffffffffffffff168173ffffffffffffffffffffffffffffffffffffffff16146106d3578382826040517f64283d7b0000000000000000000000000000000000000000000000000000000081526004016106ca939291906127c9565b60405180910390fd5b50505050565b6106f483838360405180602001604052806000815250610b64565b505050565b60006008600083815260200190815260200160002060009054906101000a900460ff169050919050565b600760205280600052604060002060009150905080600001549080600101805461074c90612798565b80601f016020809104026020016040519081016040528092919081815260200182805461077890612798565b80156107c55780601f1061079a576101008083540402835291602001916107c5565b820191906000526020600020905b8154815290600101906020018083116107a857829003601f168201915b5050505050908060020180546107da90612798565b80601f016020809104026020016040519081016040528092919081815260200182805461080690612798565b80156108535780601f1061082857610100808354040283529160200191610853565b820191906000526020600020905b81548152906001019060200180831161083657829003601f168201915b5050505050905083565b6000610868826111d7565b9050919050565b60008073ffffffffffffffffffffffffffffffffffffffff168273ffffffffffffffffffffffffffffffffffffffff16036108e25760006040517f89c62b640000000000000000000000000000000000000000000000000000000081526004016108d9919061215f565b60405180910390fd5b600360008373ffffffffffffffffffffffffffffffffffffffff1673ffffffffffffffffffffffffffffffffffffffff168152602001908152602001600020549050919050565b60086020528060005260406000206000915054906101000a900460ff1681565b60606000610994600960008573ffffffffffffffffffffffffffffffffffffffff1673ffffffffffffffffffffffffffffffffffffffff1681526020019081526020016000206114d0565b67ffffffffffffffff8111156109ad576109ac61242b565b5b6040519080825280602002602001820160405280156109db5781602001602082028036833780820191505090505b50905060005b610a28600960008673ffffffffffffffffffffffffffffffffffffffff1673ffffffffffffffffffffffffffffffffffffffff1681526020019081526020016000206114d0565b811015610ab257610a8081600960008773ffffffffffffffffffffffffffffffffffffffff1673ffffffffffffffffffffffffffffffffffffffff1681526020019081526020016000206114e590919063ffffffff16565b828281518110610a9357610a92612800565b5b6020026020010181815250508080610aaa9061285e565b9150506109e1565b5080915050919050565b606060018054610acb90612798565b80601f0160208091040260200160405190810160405280929190818152602001828054610af790612798565b8015610b445780601f10610b1957610100808354040283529160200191610b44565b820191906000526020600020905b815481529060010190602001808311610b2757829003601f168201915b5050505050905090565b610b60610b5961129c565b83836114ff565b5050565b610b6f8484846105d7565b610b7b8484848461166e565b50505050565b6060610b8c826106f9565b610bcb576040517f08c379a0000000000000000000000000000000000000000000000000000000008152600401610bc2906128f2565b60405180910390fd5b60006007600084815260200190815260200160002060405180606001604052908160008201548152602001600182018054610c0590612798565b80601f0160208091040260200160405190810160405280929190818152602001828054610c3190612798565b8015610c7e5780601f10610c5357610100808354040283529160200191610c7e565b820191906000526020600020905b815481529060010190602001808311610c6157829003601f168201915b50505050508152602001600282018054610c9790612798565b80601f0160208091040260200160405190810160405280929190818152602001828054610cc390612798565b8015610d105780601f10610ce557610100808354040283529160200191610d10565b820191906000526020600020905b815481529060010190602001808311610cf357829003601f168201915b5050505050815250509050600081602001518260400151604051602001610d38929190612a32565b6040516020818303038152906040529050610d5281611825565b604051602001610d629190612ac3565b60405160208183030381529060405292505050919050565b600080835111610dbf576040517f08c379a0000000000000000000000000000000000000000000000000000000008152600401610db690612b31565b60405180910390fd5b6000825111610e03576040517f08c379a0000000000000000000000000000000000000000000000000000000008152600401610dfa90612b9d565b60405180910390fd5b60066000815480929190610e169061285e565b919050555060006006549050610e2c3382611997565b600060405180606001604052808381526020018681526020018581525090508060076000848152602001908152602001600020600082015181600001556020820151816001019081610e7e9190612d69565b506040820151816002019081610e949190612d69565b50905050610ee982600960003373ffffffffffffffffffffffffffffffffffffffff1673ffffffffffffffffffffffffffffffffffffffff1681526020019081526020016000206119b590919063ffffffff16565b5060016008600084815260200190815260200160002060006101000a81548160ff0219169083151502179055503373ffffffffffffffffffffffffffffffffffffffff16827fdab4335cf1cf2941843dcc321e5da1d0f8dab62489d341b689155826511469348787604051610f5f9291906126f2565b60405180910390a3819250505092915050565b60608060006007600085815260200190815260200160002060405180606001604052908160008201548152602001600182018054610faf90612798565b80601f0160208091040260200160405190810160405280929190818152602001828054610fdb90612798565b80156110285780601f10610ffd57610100808354040283529160200191611028565b820191906000526020600020905b81548152906001019060200180831161100b57829003601f168201915b5050505050815260200160028201805461104190612798565b80601f016020809104026020016040519081016040528092919081815260200182805461106d90612798565b80156110ba5780601f1061108f576101008083540402835291602001916110ba565b820191906000526020600020905b81548152906001019060200180831161109d57829003601f168201915b5050505050815250509050806020015181604001519250925050915091565b6000600560008473ffffffffffffffffffffffffffffffffffffffff1673ffffffffffffffffffffffffffffffffffffffff16815260200190815260200160002060008373ffffffffffffffffffffffffffffffffffffffff1673ffffffffffffffffffffffffffffffffffffffff16815260200190815260200160002060009054906101000a900460ff16905092915050565b60007f01ffc9a7000000000000000000000000000000000000000000000000000000007bffffffffffffffffffffffffffffffffffffffffffffffffffffffff1916827bffffffffffffffffffffffffffffffffffffffffffffffffffffffff1916149050919050565b6000806111e3836119cf565b9050600073ffffffffffffffffffffffffffffffffffffffff168173ffffffffffffffffffffffffffffffffffffffff160361125657826040517f7e27328900000000000000000000000000000000000000000000000000000000815260040161124d91906122ba565b60405180910390fd5b80915050919050565b60006004600083815260200190815260200160002060009054906101000a900473ffffffffffffffffffffffffffffffffffffffff169050919050565b600033905090565b6112b18383836001611a0c565b505050565b6000806112c2846119cf565b9050600073ffffffffffffffffffffffffffffffffffffffff168373ffffffffffffffffffffffffffffffffffffffff161461130457611303818486611bd1565b5b600073ffffffffffffffffffffffffffffffffffffffff168173ffffffffffffffffffffffffffffffffffffffff161461139557611346600085600080611a0c565b6001600360008373ffffffffffffffffffffffffffffffffffffffff1673ffffffffffffffffffffffffffffffffffffffff168152602001908152602001600020600082825403925050819055505b600073ffffffffffffffffffffffffffffffffffffffff168573ffffffffffffffffffffffffffffffffffffffff1614611418576001600360008773ffffffffffffffffffffffffffffffffffffffff1673ffffffffffffffffffffffffffffffffffffffff168152602001908152602001600020600082825401925050819055505b846002600086815260200190815260200160002060006101000a81548173ffffffffffffffffffffffffffffffffffffffff021916908373ffffffffffffffffffffffffffffffffffffffff160217905550838573ffffffffffffffffffffffffffffffffffffffff168273ffffffffffffffffffffffffffffffffffffffff167fddf252ad1be2c89b69c2b068fc378daa952ba7f163c4a11628f55a4df523b3ef60405160405180910390a4809150509392505050565b60006114de82600001611c95565b9050919050565b60006114f48360000183611ca6565b60001c905092915050565b600073ffffffffffffffffffffffffffffffffffffffff168273ffffffffffffffffffffffffffffffffffffffff160361157057816040517f5b08ba18000000000000000000000000000000000000000000000000000000008152600401611567919061215f565b60405180910390fd5b80600560008573ffffffffffffffffffffffffffffffffffffffff1673ffffffffffffffffffffffffffffffffffffffff16815260200190815260200160002060008473ffffffffffffffffffffffffffffffffffffffff1673ffffffffffffffffffffffffffffffffffffffff16815260200190815260200160002060006101000a81548160ff0219169083151502179055508173ffffffffffffffffffffffffffffffffffffffff168373ffffffffffffffffffffffffffffffffffffffff167f17307eab39ab6107e8899845ad3d59bd9653f200f220920489ca2b5937696c31836040516116619190611fee565b60405180910390a3505050565b60008373ffffffffffffffffffffffffffffffffffffffff163b111561181f578273ffffffffffffffffffffffffffffffffffffffff1663150b7a026116b261129c565b8685856040518563ffffffff1660e01b81526004016116d49493929190612e90565b6020604051808303816000875af192505050801561171057506040513d601f19601f8201168201806040525081019061170d9190612ef1565b60015b611794573d8060008114611740576040519150601f19603f3d011682016040523d82523d6000602084013e611745565b606091505b50600081510361178c57836040517f64a0ae92000000000000000000000000000000000000000000000000000000008152600401611783919061215f565b60405180910390fd5b805181602001fd5b63150b7a0260e01b7bffffffffffffffffffffffffffffffffffffffffffffffffffffffff1916817bffffffffffffffffffffffffffffffffffffffffffffffffffffffff19161461181d57836040517f64a0ae92000000000000000000000000000000000000000000000000000000008152600401611814919061215f565b60405180910390fd5b505b50505050565b6060600082510361184757604051806020016040528060008152509050611992565b600060405180606001604052806040815260200161301e60409139905060006003600285516118769190612f1e565b6118809190612f81565b600461188c9190612fb2565b67ffffffffffffffff8111156118a5576118a461242b565b5b6040519080825280601f01601f1916602001820160405280156118d75781602001600182028036833780820191505090505b50905060018201602082018586518701602081018051600082525b8284101561194d576003840193508351603f8160121c168701518653600186019550603f81600c1c168701518653600186019550603f8160061c168701518653600186019550603f81168701518653600186019550506118f2565b80825260038a51066001811461196a576002811461197d57611985565b603d6001870353603d6002870353611985565b603d60018703535b5050505050505080925050505b919050565b6119b1828260405180602001604052806000815250611cd1565b5050565b60006119c7836000018360001b611ced565b905092915050565b60006002600083815260200190815260200160002060009054906101000a900473ffffffffffffffffffffffffffffffffffffffff169050919050565b8080611a455750600073ffffffffffffffffffffffffffffffffffffffff168273ffffffffffffffffffffffffffffffffffffffff1614155b15611b79576000611a55846111d7565b9050600073ffffffffffffffffffffffffffffffffffffffff168373ffffffffffffffffffffffffffffffffffffffff1614158015611ac057508273ffffffffffffffffffffffffffffffffffffffff168173ffffffffffffffffffffffffffffffffffffffff1614155b8015611ad35750611ad181846110d9565b155b15611b1557826040517fa9fbf51f000000000000000000000000000000000000000000000000000000008152600401611b0c919061215f565b60405180910390fd5b8115611b7757838573ffffffffffffffffffffffffffffffffffffffff168273ffffffffffffffffffffffffffffffffffffffff167f8c5be1e5ebec7d5bd14f71427d1e84f3dd0314c0f7b2291e5b200ac8c7c3b92560405160405180910390a45b505b836004600085815260200190815260200160002060006101000a81548173ffffffffffffffffffffffffffffffffffffffff021916908373ffffffffffffffffffffffffffffffffffffffff16021790555050505050565b611bdc838383611d5d565b611c9057600073ffffffffffffffffffffffffffffffffffffffff168373ffffffffffffffffffffffffffffffffffffffff1603611c5157806040517f7e273289000000000000000000000000000000000000000000000000000000008152600401611c4891906122ba565b60405180910390fd5b81816040517f177e802f000000000000000000000000000000000000000000000000000000008152600401611c87929190612ff4565b60405180910390fd5b505050565b600081600001805490509050919050565b6000826000018281548110611cbe57611cbd612800565b5b9060005260206000200154905092915050565b611cdb8383611e1e565b611ce8600084848461166e565b505050565b6000611cf98383611f17565b611d52578260000182908060018154018082558091505060019003906000526020600020016000909190919091505582600001805490508360010160008481526020019081526020016000208190555060019050611d57565b600090505b92915050565b60008073ffffffffffffffffffffffffffffffffffffffff168373ffffffffffffffffffffffffffffffffffffffff1614158015611e1557508273ffffffffffffffffffffffffffffffffffffffff168473ffffffffffffffffffffffffffffffffffffffff161480611dd65750611dd584846110d9565b5b80611e1457508273ffffffffffffffffffffffffffffffffffffffff16611dfc8361125f565b73ffffffffffffffffffffffffffffffffffffffff16145b5b90509392505050565b600073ffffffffffffffffffffffffffffffffffffffff168273ffffffffffffffffffffffffffffffffffffffff1603611e905760006040517f64a0ae92000000000000000000000000000000000000000000000000000000008152600401611e87919061215f565b60405180910390fd5b6000611e9e838360006112b6565b9050600073ffffffffffffffffffffffffffffffffffffffff168173ffffffffffffffffffffffffffffffffffffffff1614611f125760006040517f73c6ac6e000000000000000000000000000000000000000000000000000000008152600401611f09919061215f565b60405180910390fd5b505050565b600080836001016000848152602001908152602001600020541415905092915050565b6000604051905090565b600080fd5b600080fd5b60007fffffffff0000000000000000000000000000000000000000000000000000000082169050919050565b611f8381611f4e565b8114611f8e57600080fd5b50565b600081359050611fa081611f7a565b92915050565b600060208284031215611fbc57611fbb611f44565b5b6000611fca84828501611f91565b91505092915050565b60008115159050919050565b611fe881611fd3565b82525050565b60006020820190506120036000830184611fdf565b92915050565b600081519050919050565b600082825260208201905092915050565b60005b83811015612043578082015181840152602081019050612028565b60008484015250505050565b6000601f19601f8301169050919050565b600061206b82612009565b6120758185612014565b9350612085818560208601612025565b61208e8161204f565b840191505092915050565b600060208201905081810360008301526120b38184612060565b905092915050565b6000819050919050565b6120ce816120bb565b81146120d957600080fd5b50565b6000813590506120eb816120c5565b92915050565b60006020828403121561210757612106611f44565b5b6000612115848285016120dc565b91505092915050565b600073ffffffffffffffffffffffffffffffffffffffff82169050919050565b60006121498261211e565b9050919050565b6121598161213e565b82525050565b60006020820190506121746000830184612150565b92915050565b6121838161213e565b811461218e57600080fd5b50565b6000813590506121a08161217a565b92915050565b600080604083850312156121bd576121bc611f44565b5b60006121cb85828601612191565b92505060206121dc858286016120dc565b9150509250929050565b6000806000606084860312156121ff576121fe611f44565b5b600061220d86828701612191565b935050602061221e86828701612191565b925050604061222f868287016120dc565b9150509250925092565b612242816120bb565b82525050565b600060608201905061225d6000830186612239565b818103602083015261226f8185612060565b905081810360408301526122838184612060565b9050949350505050565b6000602082840312156122a3576122a2611f44565b5b60006122b184828501612191565b91505092915050565b60006020820190506122cf6000830184612239565b92915050565b600081519050919050565b600082825260208201905092915050565b6000819050602082019050919050565b61230a816120bb565b82525050565b600061231c8383612301565b60208301905092915050565b6000602082019050919050565b6000612340826122d5565b61234a81856122e0565b9350612355836122f1565b8060005b8381101561238657815161236d8882612310565b975061237883612328565b925050600181019050612359565b5085935050505092915050565b600060208201905081810360008301526123ad8184612335565b905092915050565b6123be81611fd3565b81146123c957600080fd5b50565b6000813590506123db816123b5565b92915050565b600080604083850312156123f8576123f7611f44565b5b600061240685828601612191565b9250506020612417858286016123cc565b9150509250929050565b600080fd5b600080fd5b7f4e487b7100000000000000000000000000000000000000000000000000000000600052604160045260246000fd5b6124638261204f565b810181811067ffffffffffffffff821117156124825761248161242b565b5b80604052505050565b6000612495611f3a565b90506124a1828261245a565b919050565b600067ffffffffffffffff8211156124c1576124c061242b565b5b6124ca8261204f565b9050602081019050919050565b82818337600083830152505050565b60006124f96124f4846124a6565b61248b565b90508281526020810184848401111561251557612514612426565b5b6125208482856124d7565b509392505050565b600082601f83011261253d5761253c612421565b5b813561254d8482602086016124e6565b91505092915050565b600080600080608085870312156125705761256f611f44565b5b600061257e87828801612191565b945050602061258f87828801612191565b93505060406125a0878288016120dc565b925050606085013567ffffffffffffffff8111156125c1576125c0611f49565b5b6125cd87828801612528565b91505092959194509250565b600067ffffffffffffffff8211156125f4576125f361242b565b5b6125fd8261204f565b9050602081019050919050565b600061261d612618846125d9565b61248b565b90508281526020810184848401111561263957612638612426565b5b6126448482856124d7565b509392505050565b600082601f83011261266157612660612421565b5b813561267184826020860161260a565b91505092915050565b6000806040838503121561269157612690611f44565b5b600083013567ffffffffffffffff8111156126af576126ae611f49565b5b6126bb8582860161264c565b925050602083013567ffffffffffffffff8111156126dc576126db611f49565b5b6126e88582860161264c565b9150509250929050565b6000604082019050818103600083015261270c8185612060565b905081810360208301526127208184612060565b90509392505050565b600080604083850312156127405761273f611f44565b5b600061274e85828601612191565b925050602061275f85828601612191565b9150509250929050565b7f4e487b7100000000000000000000000000000000000000000000000000000000600052602260045260246000fd5b600060028204905060018216806127b057607f821691505b6020821081036127c3576127c2612769565b5b50919050565b60006060820190506127de6000830186612150565b6127eb6020830185612239565b6127f86040830184612150565b949350505050565b7f4e487b7100000000000000000000000000000000000000000000000000000000600052603260045260246000fd5b7f4e487b7100000000000000000000000000000000000000000000000000000000600052601160045260246000fd5b6000612869826120bb565b91507fffffffffffffffffffffffffffffffffffffffffffffffffffffffffffffffff820361289b5761289a61282f565b5b600182019050919050565b7f55524920717565727920666f72206e6f6e6578697374656e7420746f6b656e00600082015250565b60006128dc601f83612014565b91506128e7826128a6565b602082019050919050565b6000602082019050818103600083015261290b816128cf565b9050919050565b600081905092915050565b7f7b227469746c65223a2022000000000000000000000000000000000000000000600082015250565b6000612953600b83612912565b915061295e8261291d565b600b82019050919050565b600061297482612009565b61297e8185612912565b935061298e818560208601612025565b80840191505092915050565b7f222c202274657874223a20220000000000000000000000000000000000000000600082015250565b60006129d0600c83612912565b91506129db8261299a565b600c82019050919050565b7f227d000000000000000000000000000000000000000000000000000000000000600082015250565b6000612a1c600283612912565b9150612a27826129e6565b600282019050919050565b6000612a3d82612946565b9150612a498285612969565b9150612a54826129c3565b9150612a608284612969565b9150612a6b82612a0f565b91508190509392505050565b7f646174613a6170706c69636174696f6e2f6a736f6e3b6261736536342c000000600082015250565b6000612aad601d83612912565b9150612ab882612a77565b601d82019050919050565b6000612ace82612aa0565b9150612ada8284612969565b915081905092915050565b7f5469746c652063616e6e6f7420626520656d7074790000000000000000000000600082015250565b6000612b1b601583612014565b9150612b2682612ae5565b602082019050919050565b60006020820190508181036000830152612b4a81612b0e565b9050919050565b7f546578742063616e6e6f7420626520656d707479000000000000000000000000600082015250565b6000612b87601483612014565b9150612b9282612b51565b602082019050919050565b60006020820190508181036000830152612bb681612b7a565b9050919050565b60008190508160005260206000209050919050565b60006020601f8301049050919050565b600082821b905092915050565b600060088302612c1f7fffffffffffffffffffffffffffffffffffffffffffffffffffffffffffffffff82612be2565b612c298683612be2565b95508019841693508086168417925050509392505050565b6000819050919050565b6000612c66612c61612c5c846120bb565b612c41565b6120bb565b9050919050565b6000819050919050565b612c8083612c4b565b612c94612c8c82612c6d565b848454612bef565b825550505050565b600090565b612ca9612c9c565b612cb4818484612c77565b505050565b5b81811015612cd857612ccd600082612ca1565b600181019050612cba565b5050565b601f821115612d1d57612cee81612bbd565b612cf784612bd2565b81016020851015612d06578190505b612d1a612d1285612bd2565b830182612cb9565b50505b505050565b600082821c905092915050565b6000612d4060001984600802612d22565b1980831691505092915050565b6000612d598383612d2f565b9150826002028217905092915050565b612d7282612009565b67ffffffffffffffff811115612d8b57612d8a61242b565b5b612d958254612798565b612da0828285612cdc565b600060209050601f831160018114612dd35760008415612dc1578287015190505b612dcb8582612d4d565b865550612e33565b601f198416612de186612bbd565b60005b82811015612e0957848901518255600182019150602085019450602081019050612de4565b86831015612e265784890151612e22601f891682612d2f565b8355505b6001600288020188555050505b505050505050565b600081519050919050565b600082825260208201905092915050565b6000612e6282612e3b565b612e6c8185612e46565b9350612e7c818560208601612025565b612e858161204f565b840191505092915050565b6000608082019050612ea56000830187612150565b612eb26020830186612150565b612ebf6040830185612239565b8181036060830152612ed18184612e57565b905095945050505050565b600081519050612eeb81611f7a565b92915050565b600060208284031215612f0757612f06611f44565b5b6000612f1584828501612edc565b91505092915050565b6000612f29826120bb565b9150612f34836120bb565b9250828201905080821115612f4c57612f4b61282f565b5b92915050565b7f4e487b7100000000000000000000000000000000000000000000000000000000600052601260045260246000fd5b6000612f8c826120bb565b9150612f97836120bb565b925082612fa757612fa6612f52565b5b828204905092915050565b6000612fbd826120bb565b9150612fc8836120bb565b9250828202612fd6816120bb565b91508282048414831517612fed57612fec61282f565b5b5092915050565b60006040820190506130096000830185612150565b6130166020830184612239565b939250505056fe4142434445464748494a4b4c4d4e4f505152535455565758595a6162636465666768696a6b6c6d6e6f707172737475767778797a303132333435363738392b2fa2646970667358221220789697964b7f5a28194a6e17916bcb0d64cdff8138d49e9a375da7fd5e69649364736f6c63430008140033",
  "linkReferences": {},
  "deployedLinkReferences": {}
}